{
  "contractName": "MyContract",
  "abi": [
    {
      "constant": true,
      "inputs": [],
      "name": "getActiveNumber",
      "outputs": [
        {
          "name": "",
          "type": "uint256"
        }
      ],
      "payable": false,
      "stateMutability": "view",
      "type": "function"
    },
    {
      "constant": false,
      "inputs": [
        {
          "name": "newNumber",
          "type": "uint256"
        }
      ],
      "name": "setActiveNumber",
      "outputs": [],
      "payable": false,
      "stateMutability": "nonpayable",
      "type": "function"
    },
    {
      "inputs": [
        {
          "name": "number",
          "type": "uint256"
        }
      ],
      "payable": false,
      "stateMutability": "nonpayable",
      "type": "constructor"
    }
  ],
  "bytecode": "0x6060604052341561000f57600080fd5b60405160208061011483398101604052808051906020019091905050806000819055505060d3806100416000396000f3006060604052600436106049576000357c0100000000000000000000000000000000000000000000000000000000900463ffffffff1680631fe4602c14604e578063611a65f3146074575b600080fd5b3415605857600080fd5b605e6094565b6040518082815260200191505060405180910390f35b3415607e57600080fd5b60926004808035906020019091905050609d565b005b60008054905090565b80600081905550505600a165627a7a72305820201c37b652a934eaa33c78efb1c0b99b1b841811516e00748c22267ab5cca7430029",
  "source": "pragma solidity ^0.4.18;\n\ncontract MyContract {\n    uint activeNumber;\n    /* Constructor */\n    function MyContract(uint number) public {\n        activeNumber = number;\n    }\n    \n    function setActiveNumber(uint newNumber) public {\n        activeNumber = newNumber;\n    }\n    \n    function getActiveNumber() public constant returns(uint)  {\n        return activeNumber;\n    }\n    \n}",
  "sourcePath": "/Users/Ryan/Desktop/TestDapp/contracts/MyContract.sol",
  "compiler": {
    "name": "solc",
    "version": "0.4.18+commit.9cf6e910.Emscripten.clang"
  },
  "schemaVersion": "1.0.1",
  "updatedAt": "2018-03-31T15:30:03.359Z"
}